{
  "contractName": "FlexOffer",
  "abi": [
    {
      "inputs": [],
      "stateMutability": "nonpayable",
      "type": "constructor"
    },
    {
      "anonymous": false,
      "inputs": [
        {
          "indexed": true,
          "internalType": "address",
          "name": "owner",
          "type": "address"
        },
        {
          "indexed": true,
          "internalType": "address",
          "name": "approved",
          "type": "address"
        },
        {
          "indexed": true,
          "internalType": "uint256",
          "name": "tokenId",
          "type": "uint256"
        }
      ],
      "name": "Approval",
      "type": "event"
    },
    {
      "anonymous": false,
      "inputs": [
        {
          "indexed": true,
          "internalType": "address",
          "name": "owner",
          "type": "address"
        },
        {
          "indexed": true,
          "internalType": "address",
          "name": "operator",
          "type": "address"
        },
        {
          "indexed": false,
          "internalType": "bool",
          "name": "approved",
          "type": "bool"
        }
      ],
      "name": "ApprovalForAll",
      "type": "event"
    },
    {
      "anonymous": false,
      "inputs": [
        {
          "indexed": true,
          "internalType": "address",
          "name": "from",
          "type": "address"
        },
        {
          "indexed": true,
          "internalType": "address",
          "name": "to",
          "type": "address"
        },
        {
          "indexed": true,
          "internalType": "uint256",
          "name": "tokenId",
          "type": "uint256"
        }
      ],
      "name": "Transfer",
      "type": "event"
    },
    {
      "anonymous": false,
      "inputs": [
        {
          "indexed": true,
          "internalType": "address",
          "name": "_address",
          "type": "address"
        },
        {
          "indexed": false,
          "internalType": "uint256",
          "name": "ethAmount",
          "type": "uint256"
        },
        {
          "indexed": false,
          "internalType": "uint256",
          "name": "pointAmount",
          "type": "uint256"
        },
        {
          "indexed": true,
          "internalType": "address",
          "name": "curr_owner",
          "type": "address"
        }
      ],
      "name": "ethForFlexPoint",
      "type": "event"
    },
    {
      "anonymous": false,
      "inputs": [
        {
          "indexed": true,
          "internalType": "uint256",
          "name": "flexOfferId",
          "type": "uint256"
        },
        {
          "indexed": false,
          "internalType": "uint256",
          "name": "flexPointCalc",
          "type": "uint256"
        },
        {
          "indexed": true,
          "internalType": "address",
          "name": "curr_owner",
          "type": "address"
        }
      ],
      "name": "flexOfferActivation",
      "type": "event"
    },
    {
      "anonymous": false,
      "inputs": [
        {
          "indexed": true,
          "internalType": "uint256",
          "name": "flexOfferId",
          "type": "uint256"
        },
        {
          "indexed": true,
          "internalType": "address",
          "name": "new_owner",
          "type": "address"
        }
      ],
      "name": "flexOfferBidSuccess",
      "type": "event"
    },
    {
      "anonymous": false,
      "inputs": [
        {
          "indexed": true,
          "internalType": "uint256",
          "name": "flexOfferId",
          "type": "uint256"
        },
        {
          "indexed": true,
          "internalType": "address",
          "name": "og_owner",
          "type": "address"
        }
      ],
      "name": "flexOfferMinted",
      "type": "event"
    },
    {
      "anonymous": false,
      "inputs": [
        {
          "indexed": true,
          "internalType": "uint256",
          "name": "flexOfferId",
          "type": "uint256"
        }
      ],
      "name": "flex_offer_burned",
      "type": "event"
    },
    {
      "inputs": [],
      "name": "FP",
      "outputs": [
        {
          "internalType": "contract FlexPoint",
          "name": "",
          "type": "address"
        }
      ],
      "stateMutability": "view",
      "type": "function",
      "constant": true
    },
    {
      "inputs": [
        {
          "internalType": "address",
          "name": "to",
          "type": "address"
        },
        {
          "internalType": "uint256",
          "name": "tokenId",
          "type": "uint256"
        }
      ],
      "name": "approve",
      "outputs": [],
      "stateMutability": "nonpayable",
      "type": "function"
    },
    {
      "inputs": [
        {
          "internalType": "address",
          "name": "owner",
          "type": "address"
        }
      ],
      "name": "balanceOf",
      "outputs": [
        {
          "internalType": "uint256",
          "name": "",
          "type": "uint256"
        }
      ],
      "stateMutability": "view",
      "type": "function",
      "constant": true
    },
    {
      "inputs": [],
      "name": "baseURI",
      "outputs": [
        {
          "internalType": "string",
          "name": "",
          "type": "string"
        }
      ],
      "stateMutability": "view",
      "type": "function",
      "constant": true
    },
    {
      "inputs": [
        {
          "internalType": "uint256",
          "name": "tokenId",
          "type": "uint256"
        }
      ],
      "name": "burn",
      "outputs": [],
      "stateMutability": "nonpayable",
      "type": "function"
    },
    {
      "inputs": [
        {
          "internalType": "address",
          "name": "",
          "type": "address"
        },
        {
          "internalType": "uint256",
          "name": "",
          "type": "uint256"
        }
      ],
      "name": "flexOfferMintMapping",
      "outputs": [
        {
          "internalType": "uint256",
          "name": "",
          "type": "uint256"
        }
      ],
      "stateMutability": "view",
      "type": "function",
      "constant": true
    },
    {
      "inputs": [
        {
          "internalType": "uint256",
          "name": "",
          "type": "uint256"
        }
      ],
      "name": "flex_offers_mapping",
      "outputs": [
        {
          "internalType": "address",
          "name": "og_owner",
          "type": "address"
        },
        {
          "internalType": "uint256",
          "name": "power",
          "type": "uint256"
        },
        {
          "internalType": "uint256",
          "name": "duration",
          "type": "uint256"
        },
        {
          "internalType": "uint256",
          "name": "start_time",
          "type": "uint256"
        },
        {
          "internalType": "uint256",
          "name": "end_time",
          "type": "uint256"
        },
        {
          "internalType": "uint256",
          "name": "curr_bid",
          "type": "uint256"
        }
      ],
      "stateMutability": "view",
      "type": "function",
      "constant": true
    },
    {
      "inputs": [
        {
          "internalType": "uint256",
          "name": "tokenId",
          "type": "uint256"
        }
      ],
      "name": "getApproved",
      "outputs": [
        {
          "internalType": "address",
          "name": "",
          "type": "address"
        }
      ],
      "stateMutability": "view",
      "type": "function",
      "constant": true
    },
    {
      "inputs": [
        {
          "internalType": "address",
          "name": "owner",
          "type": "address"
        },
        {
          "internalType": "address",
          "name": "operator",
          "type": "address"
        }
      ],
      "name": "isApprovedForAll",
      "outputs": [
        {
          "internalType": "bool",
          "name": "",
          "type": "bool"
        }
      ],
      "stateMutability": "view",
      "type": "function",
      "constant": true
    },
    {
      "inputs": [],
      "name": "memory_string",
      "outputs": [
        {
          "internalType": "string",
          "name": "",
          "type": "string"
        }
      ],
      "stateMutability": "view",
      "type": "function",
      "constant": true
    },
    {
      "inputs": [],
      "name": "name",
      "outputs": [
        {
          "internalType": "string",
          "name": "",
          "type": "string"
        }
      ],
      "stateMutability": "view",
      "type": "function",
      "constant": true
    },
    {
      "inputs": [
        {
          "internalType": "uint256",
          "name": "tokenId",
          "type": "uint256"
        }
      ],
      "name": "ownerOf",
      "outputs": [
        {
          "internalType": "address",
          "name": "",
          "type": "address"
        }
      ],
      "stateMutability": "view",
      "type": "function",
      "constant": true
    },
    {
      "inputs": [
        {
          "internalType": "address",
          "name": "from",
          "type": "address"
        },
        {
          "internalType": "address",
          "name": "to",
          "type": "address"
        },
        {
          "internalType": "uint256",
          "name": "tokenId",
          "type": "uint256"
        }
      ],
      "name": "safeTransferFrom",
      "outputs": [],
      "stateMutability": "nonpayable",
      "type": "function"
    },
    {
      "inputs": [
        {
          "internalType": "address",
          "name": "from",
          "type": "address"
        },
        {
          "internalType": "address",
          "name": "to",
          "type": "address"
        },
        {
          "internalType": "uint256",
          "name": "tokenId",
          "type": "uint256"
        },
        {
          "internalType": "bytes",
          "name": "_data",
          "type": "bytes"
        }
      ],
      "name": "safeTransferFrom",
      "outputs": [],
      "stateMutability": "nonpayable",
      "type": "function"
    },
    {
      "inputs": [
        {
          "internalType": "address",
          "name": "operator",
          "type": "address"
        },
        {
          "internalType": "bool",
          "name": "approved",
          "type": "bool"
        }
      ],
      "name": "setApprovalForAll",
      "outputs": [],
      "stateMutability": "nonpayable",
      "type": "function"
    },
    {
      "inputs": [
        {
          "internalType": "bytes4",
          "name": "interfaceId",
          "type": "bytes4"
        }
      ],
      "name": "supportsInterface",
      "outputs": [
        {
          "internalType": "bool",
          "name": "",
          "type": "bool"
        }
      ],
      "stateMutability": "view",
      "type": "function",
      "constant": true
    },
    {
      "inputs": [],
      "name": "symbol",
      "outputs": [
        {
          "internalType": "string",
          "name": "",
          "type": "string"
        }
      ],
      "stateMutability": "view",
      "type": "function",
      "constant": true
    },
    {
      "inputs": [
        {
          "internalType": "uint256",
          "name": "index",
          "type": "uint256"
        }
      ],
      "name": "tokenByIndex",
      "outputs": [
        {
          "internalType": "uint256",
          "name": "",
          "type": "uint256"
        }
      ],
      "stateMutability": "view",
      "type": "function",
      "constant": true
    },
    {
      "inputs": [
        {
          "internalType": "address",
          "name": "owner",
          "type": "address"
        },
        {
          "internalType": "uint256",
          "name": "index",
          "type": "uint256"
        }
      ],
      "name": "tokenOfOwnerByIndex",
      "outputs": [
        {
          "internalType": "uint256",
          "name": "",
          "type": "uint256"
        }
      ],
      "stateMutability": "view",
      "type": "function",
      "constant": true
    },
    {
      "inputs": [
        {
          "internalType": "uint256",
          "name": "tokenId",
          "type": "uint256"
        }
      ],
      "name": "tokenURI",
      "outputs": [
        {
          "internalType": "string",
          "name": "",
          "type": "string"
        }
      ],
      "stateMutability": "view",
      "type": "function",
      "constant": true
    },
    {
      "inputs": [],
      "name": "totalSupply",
      "outputs": [
        {
          "internalType": "uint256",
          "name": "",
          "type": "uint256"
        }
      ],
      "stateMutability": "view",
      "type": "function",
      "constant": true
    },
    {
      "inputs": [
        {
          "internalType": "address",
          "name": "from",
          "type": "address"
        },
        {
          "internalType": "address",
          "name": "to",
          "type": "address"
        },
        {
          "internalType": "uint256",
          "name": "tokenId",
          "type": "uint256"
        }
      ],
      "name": "transferFrom",
      "outputs": [],
      "stateMutability": "nonpayable",
      "type": "function"
    },
    {
      "inputs": [
        {
          "internalType": "address",
          "name": "_address",
          "type": "address"
        }
      ],
      "name": "GetMyTotMintedFlexOffers",
      "outputs": [
        {
          "internalType": "uint256",
          "name": "",
          "type": "uint256"
        }
      ],
      "stateMutability": "nonpayable",
      "type": "function"
    },
    {
      "inputs": [
        {
          "internalType": "address",
          "name": "_address",
          "type": "address"
        },
        {
          "internalType": "uint256",
          "name": "i",
          "type": "uint256"
        }
      ],
      "name": "GetMyFlexOffer",
      "outputs": [
        {
          "internalType": "uint256",
          "name": "",
          "type": "uint256"
        }
      ],
      "stateMutability": "nonpayable",
      "type": "function"
    },
    {
      "inputs": [
        {
          "internalType": "uint256",
          "name": "power",
          "type": "uint256"
        },
        {
          "internalType": "uint256",
          "name": "duration",
          "type": "uint256"
        },
        {
          "internalType": "uint256",
          "name": "start_time",
          "type": "uint256"
        },
        {
          "internalType": "uint256",
          "name": "end_time",
          "type": "uint256"
        }
      ],
      "name": "mint_flex_offer_to",
      "outputs": [
        {
          "internalType": "uint256",
          "name": "",
          "type": "uint256"
        }
      ],
      "stateMutability": "nonpayable",
      "type": "function"
    },
    {
      "inputs": [
        {
          "internalType": "uint256",
          "name": "flexOfferId",
          "type": "uint256"
        }
      ],
      "name": "BidForFlexOffer",
      "outputs": [],
      "stateMutability": "payable",
      "type": "function",
      "payable": true
    },
    {
      "inputs": [
        {
          "internalType": "uint256",
          "name": "flexOfferId",
          "type": "uint256"
        }
      ],
      "name": "ActivateFlexOffer",
      "outputs": [],
      "stateMutability": "nonpayable",
      "type": "function"
    },
    {
      "inputs": [
        {
          "internalType": "uint256",
          "name": "flexOfferId",
          "type": "uint256"
        }
      ],
      "name": "EndTimeActivate",
      "outputs": [],
      "stateMutability": "nonpayable",
      "type": "function"
    },
    {
      "inputs": [
        {
          "internalType": "uint256",
          "name": "pointAmount",
          "type": "uint256"
        }
      ],
      "name": "ClaimEthWithFlexPoint",
      "outputs": [],
      "stateMutability": "nonpayable",
      "type": "function"
    }
  ],
  "bytecode": "0x60806040523480156200001157600080fd5b506040518060400160405280600a81526020017f466c65785f4f66666572000000000000000000000000000000000000000000008152506040518060400160405280600281526020017f464f000000000000000000000000000000000000000000000000000000000000815250620000966301ffc9a760e01b620001ea60201b60201c565b8160069080519060200190620000ae929190620002f3565b508060079080519060200190620000c7929190620002f3565b50620000e06380ac58cd60e01b620001ea60201b60201c565b620000f8635b5e139f60e01b620001ea60201b60201c565b6200011063780e9d6360e01b620001ea60201b60201c565b50506040518060400160405280600481526020017f6865796f00000000000000000000000000000000000000000000000000000000815250600a90805190602001906200015f929190620002f3565b506040516200016e906200037a565b604051809103906000f0801580156200018b573d6000803e3d6000fd5b50600b60006101000a81548173ffffffffffffffffffffffffffffffffffffffff021916908373ffffffffffffffffffffffffffffffffffffffff1602179055506000600c81905550600a600e81905550603c600d81905550620003b0565b63ffffffff60e01b817bffffffffffffffffffffffffffffffffffffffffffffffffffffffff1916141562000287576040517f08c379a000000000000000000000000000000000000000000000000000000000815260040180806020018281038252601c8152602001807f4552433136353a20696e76616c696420696e746572666163652069640000000081525060200191505060405180910390fd5b6001600080837bffffffffffffffffffffffffffffffffffffffffffffffffffffffff19167bffffffffffffffffffffffffffffffffffffffffffffffffffffffff1916815260200190815260200160002060006101000a81548160ff02191690831515021790555050565b828054600181600116156101000203166002900490600052602060002090601f016020900481019282601f106200033657805160ff191683800117855562000367565b8280016001018555821562000367579182015b828111156200036657825182559160200191906001019062000349565b5b50905062000376919062000388565b5090565b611fbc806200448d83390190565b620003ad91905b80821115620003a95760008160009055506001016200038f565b5090565b90565b6140cd80620003c06000396000f3fe6080604052600436106101c25760003560e01c80634fbcd907116100f7578063724647ba11610095578063addd058211610064578063addd058214610bc5578063b88d4fde14610c2a578063c87b56dd14610d3c578063e985e9c514610df0576101c2565b8063724647ba146109ff57806395d89b4114610a9d578063a16487e714610b2d578063a22cb46514610b68576101c2565b8063636284b1116100d1578063636284b1146108785780636a4519c5146108cf5780636c0360eb1461090a57806370a082311461099a576101c2565b80634fbcd907146107535780635f98518e146107c25780636352211e146107fd576101c2565b80632f745c591161016457806342966c681161013e57806342966c681461062c57806349c75d9c146106675780634c866d14146106d65780634f6ccce714610704576101c2565b80632f745c59146104d5578063424713ff1461054457806342842e0e146105b1576101c2565b8063095ea7b3116101a0578063095ea7b31461034457806318160ddd1461039f57806323b872dd146103ca5780632a9c53f514610445576101c2565b806301ffc9a7146101c757806306fdde0314610239578063081812fc146102c9575b600080fd5b3480156101d357600080fd5b5061021f600480360360208110156101ea57600080fd5b8101908080357bffffffffffffffffffffffffffffffffffffffffffffffffffffffff19169060200190929190505050610e79565b604051808215151515815260200191505060405180910390f35b34801561024557600080fd5b5061024e610ee0565b6040518080602001828103825283818151815260200191508051906020019080838360005b8381101561028e578082015181840152602081019050610273565b50505050905090810190601f1680156102bb5780820380516001836020036101000a031916815260200191505b509250505060405180910390f35b3480156102d557600080fd5b50610302600480360360208110156102ec57600080fd5b8101908080359060200190929190505050610f82565b604051808273ffffffffffffffffffffffffffffffffffffffff1673ffffffffffffffffffffffffffffffffffffffff16815260200191505060405180910390f35b34801561035057600080fd5b5061039d6004803603604081101561036757600080fd5b81019080803573ffffffffffffffffffffffffffffffffffffffff1690602001909291908035906020019092919050505061101d565b005b3480156103ab57600080fd5b506103b4611161565b6040518082815260200191505060405180910390f35b3480156103d657600080fd5b50610443600480360360608110156103ed57600080fd5b81019080803573ffffffffffffffffffffffffffffffffffffffff169060200190929190803573ffffffffffffffffffffffffffffffffffffffff16906020019092919080359060200190929190505050611172565b005b34801561045157600080fd5b5061045a6111e8565b6040518080602001828103825283818151815260200191508051906020019080838360005b8381101561049a57808201518184015260208101905061047f565b50505050905090810190601f1680156104c75780820380516001836020036101000a031916815260200191505b509250505060405180910390f35b3480156104e157600080fd5b5061052e600480360360408110156104f857600080fd5b81019080803573ffffffffffffffffffffffffffffffffffffffff16906020019092919080359060200190929190505050611286565b6040518082815260200191505060405180910390f35b34801561055057600080fd5b5061059b6004803603608081101561056757600080fd5b81019080803590602001909291908035906020019092919080359060200190929190803590602001909291905050506112e1565b6040518082815260200191505060405180910390f35b3480156105bd57600080fd5b5061062a600480360360608110156105d457600080fd5b81019080803573ffffffffffffffffffffffffffffffffffffffff169060200190929190803573ffffffffffffffffffffffffffffffffffffffff169060200190929190803590602001909291905050506114af565b005b34801561063857600080fd5b506106656004803603602081101561064f57600080fd5b81019080803590602001909291905050506114cf565b005b34801561067357600080fd5b506106c06004803603604081101561068a57600080fd5b81019080803573ffffffffffffffffffffffffffffffffffffffff16906020019092919080359060200190929190505050611541565b6040518082815260200191505060405180910390f35b610702600480360360208110156106ec57600080fd5b810190808035906020019092919050505061156f565b005b34801561071057600080fd5b5061073d6004803603602081101561072757600080fd5b810190808035906020019092919050505061175a565b6040518082815260200191505060405180910390f35b34801561075f57600080fd5b506107ac6004803603604081101561077657600080fd5b81019080803573ffffffffffffffffffffffffffffffffffffffff1690602001909291908035906020019092919050505061177d565b6040518082815260200191505060405180910390f35b3480156107ce57600080fd5b506107fb600480360360208110156107e557600080fd5b81019080803590602001909291905050506117dc565b005b34801561080957600080fd5b506108366004803603602081101561082057600080fd5b8101908080359060200190929190505050611a26565b604051808273ffffffffffffffffffffffffffffffffffffffff1673ffffffffffffffffffffffffffffffffffffffff16815260200191505060405180910390f35b34801561088457600080fd5b5061088d611a5d565b604051808273ffffffffffffffffffffffffffffffffffffffff1673ffffffffffffffffffffffffffffffffffffffff16815260200191505060405180910390f35b3480156108db57600080fd5b50610908600480360360208110156108f257600080fd5b8101908080359060200190929190505050611a83565b005b34801561091657600080fd5b5061091f611c31565b6040518080602001828103825283818151815260200191508051906020019080838360005b8381101561095f578082015181840152602081019050610944565b50505050905090810190601f16801561098c5780820380516001836020036101000a031916815260200191505b509250505060405180910390f35b3480156109a657600080fd5b506109e9600480360360208110156109bd57600080fd5b81019080803573ffffffffffffffffffffffffffffffffffffffff169060200190929190505050611cd3565b6040518082815260200191505060405180910390f35b348015610a0b57600080fd5b50610a3860048036036020811015610a2257600080fd5b8101908080359060200190929190505050611da8565b604051808773ffffffffffffffffffffffffffffffffffffffff1673ffffffffffffffffffffffffffffffffffffffff168152602001868152602001858152602001848152602001838152602001828152602001965050505050505060405180910390f35b348015610aa957600080fd5b50610ab2611e04565b6040518080602001828103825283818151815260200191508051906020019080838360005b83811015610af2578082015181840152602081019050610ad7565b50505050905090810190601f168015610b1f5780820380516001836020036101000a031916815260200191505b509250505060405180910390f35b348015610b3957600080fd5b50610b6660048036036020811015610b5057600080fd5b8101908080359060200190929190505050611ea6565b005b348015610b7457600080fd5b50610bc360048036036040811015610b8b57600080fd5b81019080803573ffffffffffffffffffffffffffffffffffffffff169060200190929190803515159060200190929190505050612093565b005b348015610bd157600080fd5b50610c1460048036036020811015610be857600080fd5b81019080803573ffffffffffffffffffffffffffffffffffffffff16906020019092919050505061224b565b6040518082815260200191505060405180910390f35b348015610c3657600080fd5b50610d3a60048036036080811015610c4d57600080fd5b81019080803573ffffffffffffffffffffffffffffffffffffffff169060200190929190803573ffffffffffffffffffffffffffffffffffffffff1690602001909291908035906020019092919080359060200190640100000000811115610cb457600080fd5b820183602082011115610cc657600080fd5b80359060200191846001830284011164010000000083111715610ce857600080fd5b91908080601f016020809104026020016040519081016040528093929190818152602001838380828437600081840152601f19601f820116905080830192505050505050509192919290505050612297565b005b348015610d4857600080fd5b50610d7560048036036020811015610d5f57600080fd5b810190808035906020019092919050505061230f565b6040518080602001828103825283818151815260200191508051906020019080838360005b83811015610db5578082015181840152602081019050610d9a565b50505050905090810190601f168015610de25780820380516001836020036101000a031916815260200191505b509250505060405180910390f35b348015610dfc57600080fd5b50610e5f60048036036040811015610e1357600080fd5b81019080803573ffffffffffffffffffffffffffffffffffffffff169060200190929190803573ffffffffffffffffffffffffffffffffffffffff1690602001909291905050506125f8565b604051808215151515815260200191505060405180910390f35b6000806000837bffffffffffffffffffffffffffffffffffffffffffffffffffffffff19167bffffffffffffffffffffffffffffffffffffffffffffffffffffffff1916815260200190815260200160002060009054906101000a900460ff169050919050565b606060068054600181600116156101000203166002900480601f016020809104026020016040519081016040528092919081815260200182805460018160011615610100020316600290048015610f785780601f10610f4d57610100808354040283529160200191610f78565b820191906000526020600020905b815481529060010190602001808311610f5b57829003601f168201915b5050505050905090565b6000610f8d8261268c565b610fe2576040517f08c379a000000000000000000000000000000000000000000000000000000000815260040180806020018281038252602c815260200180613f6a602c913960400191505060405180910390fd5b6004600083815260200190815260200160002060009054906101000a900473ffffffffffffffffffffffffffffffffffffffff169050919050565b600061102882611a26565b90508073ffffffffffffffffffffffffffffffffffffffff168373ffffffffffffffffffffffffffffffffffffffff1614156110af576040517f08c379a0000000000000000000000000000000000000000000000000000000008152600401808060200182810382526021815260200180613fee6021913960400191505060405180910390fd5b8073ffffffffffffffffffffffffffffffffffffffff166110ce6126a9565b73ffffffffffffffffffffffffffffffffffffffff1614806110fd57506110fc816110f76126a9565b6125f8565b5b611152576040517f08c379a0000000000000000000000000000000000000000000000000000000008152600401808060200182810382526038815260200180613e736038913960400191505060405180910390fd5b61115c83836126b1565b505050565b600061116d600261276a565b905090565b61118361117d6126a9565b8261277f565b6111d8576040517f08c379a00000000000000000000000000000000000000000000000000000000081526004018080602001828103825260318152602001806140376031913960400191505060405180910390fd5b6111e3838383612873565b505050565b600a8054600181600116156101000203166002900480601f01602080910402602001604051908101604052809291908181526020018280546001816001161561010002031660029004801561127e5780601f106112535761010080835404028352916020019161127e565b820191906000526020600020905b81548152906001019060200180831161126157829003601f168201915b505050505081565b60006112d982600160008673ffffffffffffffffffffffffffffffffffffffff1673ffffffffffffffffffffffffffffffffffffffff168152602001908152602001600020612ab690919063ffffffff16565b905092915050565b600082600d5442011061133f576040517f08c379a000000000000000000000000000000000000000000000000000000000815260040180806020018281038252604a815260200180613eab604a913960600191505060405180910390fd5b6000600c549050600f60006113526126a9565b73ffffffffffffffffffffffffffffffffffffffff1673ffffffffffffffffffffffffffffffffffffffff1681526020019081526020016000208190806001815401808255809150506001900390600052602060002001600090919091909150556113c46113be6126a9565b82612ad0565b6113d18187878787612aee565b6113da8161268c565b61144c576040517f08c379a00000000000000000000000000000000000000000000000000000000081526004018080602001828103825260198152602001807f666c6578206f6666657220646f6573206e6f742065786973740000000000000081525060200191505060405180910390fd5b6001600c5401600c819055506114606126a9565b73ffffffffffffffffffffffffffffffffffffffff16817fee513166ec47272e55608b9f877be6b2b7c452aaeae0b689393702152d9dd4ce60405160405180910390a380915050949350505050565b6114ca83838360405180602001604052806000815250612297565b505050565b6114e06114da6126a9565b8261277f565b611535576040517f08c379a00000000000000000000000000000000000000000000000000000000081526004018080602001828103825260308152602001806140686030913960400191505060405180910390fd5b61153e81612c2d565b50565b600f602052816000526040600020818154811061155a57fe5b90600052602060002001600091509150505481565b6000601060008381526020019081526020016000206005015490506010600083815260200190815260200160002060030154600e54420110611619576040517f08c379a00000000000000000000000000000000000000000000000000000000081526004018080602001828103825260208152602001807f466c6578204f66666572206973206e6f206c6f6e676572206269646461626c6581525060200191505060405180910390fd5b803411611671576040517f08c379a0000000000000000000000000000000000000000000000000000000008152600401808060200182810382526023815260200180613e006023913960400191505060405180910390fd5b61167a82611a26565b73ffffffffffffffffffffffffffffffffffffffff166108fc60106000858152602001908152602001600020600501549081150290604051600060405180830381858888f193505050501580156116d5573d6000803e3d6000fd5b506116f06116e283611a26565b6116ea6126a9565b84612873565b3460106000848152602001908152602001600020600501819055506117136126a9565b73ffffffffffffffffffffffffffffffffffffffff16827f71a0cbf8bac99942217c8ec01479f9f0b9e4d56dc5ff429793e3e7a36c3db99a60405160405180910390a35050565b600080611771836002612d6790919063ffffffff16565b50905080915050919050565b6000600f60008473ffffffffffffffffffffffffffffffffffffffff1673ffffffffffffffffffffffffffffffffffffffff16815260200190815260200160002082815481106117c957fe5b9060005260206000200154905092915050565b6000600b60009054906101000a900473ffffffffffffffffffffffffffffffffffffffff1673ffffffffffffffffffffffffffffffffffffffff166318160ddd6040518163ffffffff1660e01b815260040160206040518083038186803b15801561184657600080fd5b505afa15801561185a573d6000803e3d6000fd5b505050506040513d602081101561187057600080fd5b8101908080519060200190929190505050905060004790506000828285028161189557fe5b049050600b60009054906101000a900473ffffffffffffffffffffffffffffffffffffffff1673ffffffffffffffffffffffffffffffffffffffff1663a96058836118de6126a9565b866040518363ffffffff1660e01b8152600401808373ffffffffffffffffffffffffffffffffffffffff1673ffffffffffffffffffffffffffffffffffffffff16815260200182815260200192505050600060405180830381600087803b15801561194857600080fd5b505af115801561195c573d6000803e3d6000fd5b505050506119686126a9565b73ffffffffffffffffffffffffffffffffffffffff166108fc829081150290604051600060405180830381858888f193505050506119a557600080fd5b6119ad6126a9565b73ffffffffffffffffffffffffffffffffffffffff166119cb6126a9565b73ffffffffffffffffffffffffffffffffffffffff167fb8f238f026a7a7c3dc77b07fa270d3aa38e2bc2883c9c6c9ce6d654522dd442e8387604051808381526020018281526020019250505060405180910390a350505050565b6000611a5682604051806060016040528060298152602001613f1f602991396002612d969092919063ffffffff16565b9050919050565b600b60009054906101000a900473ffffffffffffffffffffffffffffffffffffffff1681565b611a8c81611a26565b73ffffffffffffffffffffffffffffffffffffffff16611aaa6126a9565b73ffffffffffffffffffffffffffffffffffffffff1614611aca57600080fd5b6000611ad582612db5565b9050600b60009054906101000a900473ffffffffffffffffffffffffffffffffffffffff1673ffffffffffffffffffffffffffffffffffffffff166390e501f76010600085815260200190815260200160002060000160009054906101000a900473ffffffffffffffffffffffffffffffffffffffff16836040518363ffffffff1660e01b8152600401808373ffffffffffffffffffffffffffffffffffffffff1673ffffffffffffffffffffffffffffffffffffffff16815260200182815260200192505050600060405180830381600087803b158015611bb657600080fd5b505af1158015611bca573d6000803e3d6000fd5b50505050611bd782612c2d565b611bdf6126a9565b73ffffffffffffffffffffffffffffffffffffffff16827f89d3fafd078b5e5bc62669ea61153d5d6900bcf5f1580160eb6a3baeeab93da9836040518082815260200191505060405180910390a35050565b606060098054600181600116156101000203166002900480601f016020809104026020016040519081016040528092919081815260200182805460018160011615610100020316600290048015611cc95780601f10611c9e57610100808354040283529160200191611cc9565b820191906000526020600020905b815481529060010190602001808311611cac57829003601f168201915b5050505050905090565b60008073ffffffffffffffffffffffffffffffffffffffff168273ffffffffffffffffffffffffffffffffffffffff161415611d5a576040517f08c379a000000000000000000000000000000000000000000000000000000000815260040180806020018281038252602a815260200180613ef5602a913960400191505060405180910390fd5b611da1600160008473ffffffffffffffffffffffffffffffffffffffff1673ffffffffffffffffffffffffffffffffffffffff168152602001908152602001600020612e43565b9050919050565b60106020528060005260406000206000915090508060000160009054906101000a900473ffffffffffffffffffffffffffffffffffffffff16908060010154908060020154908060030154908060040154908060050154905086565b606060078054600181600116156101000203166002900480601f016020809104026020016040519081016040528092919081815260200182805460018160011615610100020316600290048015611e9c5780601f10611e7157610100808354040283529160200191611e9c565b820191906000526020600020905b815481529060010190602001808311611e7f57829003601f168201915b5050505050905090565b6010600082815260200190815260200160002060000160009054906101000a900473ffffffffffffffffffffffffffffffffffffffff1673ffffffffffffffffffffffffffffffffffffffff16611efb6126a9565b73ffffffffffffffffffffffffffffffffffffffff1614611f1b57600080fd5b60106000828152602001908152602001600020600201546010600083815260200190815260200160002060040154034211611f5557600080fd5b6000611f6082612db5565b9050600b60009054906101000a900473ffffffffffffffffffffffffffffffffffffffff1673ffffffffffffffffffffffffffffffffffffffff166390e501f76010600085815260200190815260200160002060000160009054906101000a900473ffffffffffffffffffffffffffffffffffffffff16836040518363ffffffff1660e01b8152600401808373ffffffffffffffffffffffffffffffffffffffff1673ffffffffffffffffffffffffffffffffffffffff16815260200182815260200192505050600060405180830381600087803b15801561204157600080fd5b505af1158015612055573d6000803e3d6000fd5b5050505061206282612c2d565b817fd250869f7bd4147d7f070563ee342b926756939cd81b4e0b281b83f4ab2b409860405160405180910390a25050565b61209b6126a9565b73ffffffffffffffffffffffffffffffffffffffff168273ffffffffffffffffffffffffffffffffffffffff16141561213c576040517f08c379a00000000000000000000000000000000000000000000000000000000081526004018080602001828103825260198152602001807f4552433732313a20617070726f766520746f2063616c6c65720000000000000081525060200191505060405180910390fd5b80600560006121496126a9565b73ffffffffffffffffffffffffffffffffffffffff1673ffffffffffffffffffffffffffffffffffffffff16815260200190815260200160002060008473ffffffffffffffffffffffffffffffffffffffff1673ffffffffffffffffffffffffffffffffffffffff16815260200190815260200160002060006101000a81548160ff0219169083151502179055508173ffffffffffffffffffffffffffffffffffffffff166121f66126a9565b73ffffffffffffffffffffffffffffffffffffffff167f17307eab39ab6107e8899845ad3d59bd9653f200f220920489ca2b5937696c3183604051808215151515815260200191505060405180910390a35050565b6000600f60008373ffffffffffffffffffffffffffffffffffffffff1673ffffffffffffffffffffffffffffffffffffffff168152602001908152602001600020805490509050919050565b6122a86122a26126a9565b8361277f565b6122fd576040517f08c379a00000000000000000000000000000000000000000000000000000000081526004018080602001828103825260318152602001806140376031913960400191505060405180910390fd5b61230984848484612e58565b50505050565b606061231a8261268c565b61236f576040517f08c379a000000000000000000000000000000000000000000000000000000000815260040180806020018281038252602f815260200180613fbf602f913960400191505060405180910390fd5b6060600860008481526020019081526020016000208054600181600116156101000203166002900480601f0160208091040260200160405190810160405280929190818152602001828054600181600116156101000203166002900480156124185780601f106123ed57610100808354040283529160200191612418565b820191906000526020600020905b8154815290600101906020018083116123fb57829003601f168201915b5050505050905060006009805460018160011615610100020316600290049050141561244757809150506125f3565b6000815111156125205760098160405160200180838054600181600116156101000203166002900480156124b25780601f106124905761010080835404028352918201916124b2565b820191906000526020600020905b81548152906001019060200180831161249e575b505082805190602001908083835b602083106124e357805182526020820191506020810190506020830392506124c0565b6001836020036101000a038019825116818451168082178552505050505050905001925050506040516020818303038152906040529150506125f3565b600961252b84612eca565b60405160200180838054600181600116156101000203166002900480156125895780601f10612567576101008083540402835291820191612589565b820191906000526020600020905b815481529060010190602001808311612575575b505082805190602001908083835b602083106125ba5780518252602082019150602081019050602083039250612597565b6001836020036101000a038019825116818451168082178552505050505050905001925050506040516020818303038152906040529150505b919050565b6000600560008473ffffffffffffffffffffffffffffffffffffffff1673ffffffffffffffffffffffffffffffffffffffff16815260200190815260200160002060008373ffffffffffffffffffffffffffffffffffffffff1673ffffffffffffffffffffffffffffffffffffffff16815260200190815260200160002060009054906101000a900460ff16905092915050565b60006126a2826002612ffa90919063ffffffff16565b9050919050565b600033905090565b816004600083815260200190815260200160002060006101000a81548173ffffffffffffffffffffffffffffffffffffffff021916908373ffffffffffffffffffffffffffffffffffffffff160217905550808273ffffffffffffffffffffffffffffffffffffffff1661272483611a26565b73ffffffffffffffffffffffffffffffffffffffff167f8c5be1e5ebec7d5bd14f71427d1e84f3dd0314c0f7b2291e5b200ac8c7c3b92560405160405180910390a45050565b600061277882600001613014565b9050919050565b600061278a8261268c565b6127df576040517f08c379a000000000000000000000000000000000000000000000000000000000815260040180806020018281038252602c815260200180613e47602c913960400191505060405180910390fd5b60006127ea83611a26565b90508073ffffffffffffffffffffffffffffffffffffffff168473ffffffffffffffffffffffffffffffffffffffff16148061285957508373ffffffffffffffffffffffffffffffffffffffff1661284184610f82565b73ffffffffffffffffffffffffffffffffffffffff16145b8061286a575061286981856125f8565b5b91505092915050565b8273ffffffffffffffffffffffffffffffffffffffff1661289382611a26565b73ffffffffffffffffffffffffffffffffffffffff16146128ff576040517f08c379a0000000000000000000000000000000000000000000000000000000008152600401808060200182810382526029815260200180613f966029913960400191505060405180910390fd5b600073ffffffffffffffffffffffffffffffffffffffff168273ffffffffffffffffffffffffffffffffffffffff161415612985576040517f08c379a0000000000000000000000000000000000000000000000000000000008152600401808060200182810382526024815260200180613e236024913960400191505060405180910390fd5b612990838383613025565b61299b6000826126b1565b6129ec81600160008673ffffffffffffffffffffffffffffffffffffffff1673ffffffffffffffffffffffffffffffffffffffff16815260200190815260200160002061302a90919063ffffffff16565b50612a3e81600160008573ffffffffffffffffffffffffffffffffffffffff1673ffffffffffffffffffffffffffffffffffffffff16815260200190815260200160002061304490919063ffffffff16565b50612a558183600261305e9092919063ffffffff16565b50808273ffffffffffffffffffffffffffffffffffffffff168473ffffffffffffffffffffffffffffffffffffffff167fddf252ad1be2c89b69c2b068fc378daa952ba7f163c4a11628f55a4df523b3ef60405160405180910390a4505050565b6000612ac58360000183613093565b60001c905092915050565b612aea828260405180602001604052806000815250613116565b5050565b612af78561268c565b612b4c576040517f08c379a000000000000000000000000000000000000000000000000000000000815260040180806020018281038252602881526020018061400f6028913960400191505060405180910390fd5b6040518060c00160405280612b5f6126a9565b73ffffffffffffffffffffffffffffffffffffffff16815260200185815260200184815260200183815260200182815260200160008152506010600087815260200190815260200160002060008201518160000160006101000a81548173ffffffffffffffffffffffffffffffffffffffff021916908373ffffffffffffffffffffffffffffffffffffffff1602179055506020820151816001015560408201518160020155606082015181600301556080820151816004015560a082015181600501559050505050505050565b6000612c3882611a26565b9050612c4681600084613025565b612c516000836126b1565b60006008600084815260200190815260200160002080546001816001161561010002031660029004905014612ca057600860008381526020019081526020016000206000612c9f9190613d3e565b5b612cf182600160008473ffffffffffffffffffffffffffffffffffffffff1673ffffffffffffffffffffffffffffffffffffffff16815260200190815260200160002061302a90919063ffffffff16565b50612d0682600261318790919063ffffffff16565b5081600073ffffffffffffffffffffffffffffffffffffffff168273ffffffffffffffffffffffffffffffffffffffff167fddf252ad1be2c89b69c2b068fc378daa952ba7f163c4a11628f55a4df523b3ef60405160405180910390a45050565b600080600080612d7a86600001866131a1565b915091508160001c8160001c8090509350935050509250929050565b6000612da9846000018460001b8461323a565b60001c90509392505050565b6000806010600084815260200190815260200160002060030154905060006010600085815260200190815260200160002060040154905060006010600086815260200190815260200160002060020154905060006010600087815260200190815260200160002060010154905080828386860303848787030381612e3557fe5b040202945050505050919050565b6000612e5182600001613330565b9050919050565b612e63848484612873565b612e6f84848484613341565b612ec4576040517f08c379a0000000000000000000000000000000000000000000000000000000008152600401808060200182810382526032815260200180613dce6032913960400191505060405180910390fd5b50505050565b60606000821415612f12576040518060400160405280600181526020017f30000000000000000000000000000000000000000000000000000000000000008152509050612ff5565b600082905060005b60008214612f3c578080600101915050600a8281612f3457fe5b049150612f1a565b6060816040519080825280601f01601f191660200182016040528015612f715781602001600182028038833980820191505090505b50905060006001830390508593505b60008414612fed57600a8481612f9257fe5b0660300160f81b82828060019003935081518110612fac57fe5b60200101907effffffffffffffffffffffffffffffffffffffffffffffffffffffffffffff1916908160001a905350600a8481612fe557fe5b049350612f80565b819450505050505b919050565b600061300c836000018360001b613586565b905092915050565b600081600001805490509050919050565b505050565b600061303c836000018360001b6135a9565b905092915050565b6000613056836000018360001b613691565b905092915050565b600061308a846000018460001b8473ffffffffffffffffffffffffffffffffffffffff1660001b613701565b90509392505050565b6000818360000180549050116130f4576040517f08c379a0000000000000000000000000000000000000000000000000000000008152600401808060200182810382526022815260200180613dac6022913960400191505060405180910390fd5b82600001828154811061310357fe5b9060005260206000200154905092915050565b61312083836137dd565b61312d6000848484613341565b613182576040517f08c379a0000000000000000000000000000000000000000000000000000000008152600401808060200182810382526032815260200180613dce6032913960400191505060405180910390fd5b505050565b6000613199836000018360001b6139d1565b905092915050565b60008082846000018054905011613203576040517f08c379a0000000000000000000000000000000000000000000000000000000008152600401808060200182810382526022815260200180613f486022913960400191505060405180910390fd5b600084600001848154811061321457fe5b906000526020600020906002020190508060000154816001015492509250509250929050565b60008084600101600085815260200190815260200160002054905060008114158390613301576040517f08c379a00000000000000000000000000000000000000000000000000000000081526004018080602001828103825283818151815260200191508051906020019080838360005b838110156132c65780820151818401526020810190506132ab565b50505050905090810190601f1680156132f35780820380516001836020036101000a031916815260200191505b509250505060405180910390fd5b5084600001600182038154811061331457fe5b9060005260206000209060020201600101549150509392505050565b600081600001805490509050919050565b60006133628473ffffffffffffffffffffffffffffffffffffffff16613aea565b61336f576001905061357e565b606061350563150b7a0260e01b6133846126a9565b888787604051602401808573ffffffffffffffffffffffffffffffffffffffff1673ffffffffffffffffffffffffffffffffffffffff1681526020018473ffffffffffffffffffffffffffffffffffffffff1673ffffffffffffffffffffffffffffffffffffffff16815260200183815260200180602001828103825283818151815260200191508051906020019080838360005b83811015613434578082015181840152602081019050613419565b50505050905090810190601f1680156134615780820380516001836020036101000a031916815260200191505b5095505050505050604051602081830303815290604052907bffffffffffffffffffffffffffffffffffffffffffffffffffffffff19166020820180517bffffffffffffffffffffffffffffffffffffffffffffffffffffffff8381831617835250505050604051806060016040528060328152602001613dce603291398773ffffffffffffffffffffffffffffffffffffffff16613afd9092919063ffffffff16565b9050600081806020019051602081101561351e57600080fd5b8101908080519060200190929190505050905063150b7a0260e01b7bffffffffffffffffffffffffffffffffffffffffffffffffffffffff1916817bffffffffffffffffffffffffffffffffffffffffffffffffffffffff191614925050505b949350505050565b600080836001016000848152602001908152602001600020541415905092915050565b6000808360010160008481526020019081526020016000205490506000811461368557600060018203905060006001866000018054905003905060008660000182815481106135f457fe5b906000526020600020015490508087600001848154811061361157fe5b906000526020600020018190555060018301876001016000838152602001908152602001600020819055508660000180548061364957fe5b6001900381819060005260206000200160009055905586600101600087815260200190815260200160002060009055600194505050505061368b565b60009150505b92915050565b600061369d8383613b15565b6136f65782600001829080600181540180825580915050600190039060005260206000200160009091909190915055826000018054905083600101600084815260200190815260200160002081905550600190506136fb565b600090505b92915050565b60008084600101600085815260200190815260200160002054905060008114156137a8578460000160405180604001604052808681526020018581525090806001815401808255809150506001900390600052602060002090600202016000909190919091506000820151816000015560208201518160010155505084600001805490508560010160008681526020019081526020016000208190555060019150506137d6565b828560000160018303815481106137bb57fe5b90600052602060002090600202016001018190555060009150505b9392505050565b600073ffffffffffffffffffffffffffffffffffffffff168273ffffffffffffffffffffffffffffffffffffffff161415613880576040517f08c379a00000000000000000000000000000000000000000000000000000000081526004018080602001828103825260208152602001807f4552433732313a206d696e7420746f20746865207a65726f206164647265737381525060200191505060405180910390fd5b6138898161268c565b156138fc576040517f08c379a000000000000000000000000000000000000000000000000000000000815260040180806020018281038252601c8152602001807f4552433732313a20746f6b656e20616c7265616479206d696e7465640000000081525060200191505060405180910390fd5b61390860008383613025565b61395981600160008573ffffffffffffffffffffffffffffffffffffffff1673ffffffffffffffffffffffffffffffffffffffff16815260200190815260200160002061304490919063ffffffff16565b506139708183600261305e9092919063ffffffff16565b50808273ffffffffffffffffffffffffffffffffffffffff16600073ffffffffffffffffffffffffffffffffffffffff167fddf252ad1be2c89b69c2b068fc378daa952ba7f163c4a11628f55a4df523b3ef60405160405180910390a45050565b60008083600101600084815260200190815260200160002054905060008114613ade5760006001820390506000600186600001805490500390506000866000018281548110613a1c57fe5b9060005260206000209060020201905080876000018481548110613a3c57fe5b9060005260206000209060020201600082015481600001556001820154816001015590505060018301876001016000836000015481526020019081526020016000208190555086600001805480613a8f57fe5b6001900381819060005260206000209060020201600080820160009055600182016000905550509055866001016000878152602001908152602001600020600090556001945050505050613ae4565b60009150505b92915050565b600080823b905060008111915050919050565b6060613b0c8484600085613b38565b90509392505050565b600080836001016000848152602001908152602001600020541415905092915050565b6060613b4385613aea565b613bb5576040517f08c379a000000000000000000000000000000000000000000000000000000000815260040180806020018281038252601d8152602001807f416464726573733a2063616c6c20746f206e6f6e2d636f6e747261637400000081525060200191505060405180910390fd5b600060608673ffffffffffffffffffffffffffffffffffffffff1685876040518082805190602001908083835b60208310613c055780518252602082019150602081019050602083039250613be2565b6001836020036101000a03801982511681845116808217855250505050505090500191505060006040518083038185875af1925050503d8060008114613c67576040519150601f19603f3d011682016040523d82523d6000602084013e613c6c565b606091505b50915091508115613c81578092505050613d36565b600081511115613c945780518082602001fd5b836040517f08c379a00000000000000000000000000000000000000000000000000000000081526004018080602001828103825283818151815260200191508051906020019080838360005b83811015613cfb578082015181840152602081019050613ce0565b50505050905090810190601f168015613d285780820380516001836020036101000a031916815260200191505b509250505060405180910390fd5b949350505050565b50805460018160011615610100020316600290046000825580601f10613d645750613d83565b601f016020900490600052602060002090810190613d829190613d86565b5b50565b613da891905b80821115613da4576000816000905550600101613d8c565b5090565b9056fe456e756d657261626c655365743a20696e646578206f7574206f6620626f756e64734552433732313a207472616e7366657220746f206e6f6e20455243373231526563656976657220696d706c656d656e74657243757272656e742062696420697320686967686572207468616e20796f7572206269644552433732313a207472616e7366657220746f20746865207a65726f20616464726573734552433732313a206f70657261746f7220717565727920666f72206e6f6e6578697374656e7420746f6b656e4552433732313a20617070726f76652063616c6c6572206973206e6f74206f776e6572206e6f7220617070726f76656420666f7220616c6c73746172742074696d6520746f6f20636c6f736520746f206f666665722074696d652e20446f6573206e6f7420616c6c6f772074696d6520666f72206269646465727320746f206269644552433732313a2062616c616e636520717565727920666f7220746865207a65726f20616464726573734552433732313a206f776e657220717565727920666f72206e6f6e6578697374656e7420746f6b656e456e756d657261626c654d61703a20696e646578206f7574206f6620626f756e64734552433732313a20617070726f76656420717565727920666f72206e6f6e6578697374656e7420746f6b656e4552433732313a207472616e73666572206f6620746f6b656e2074686174206973206e6f74206f776e4552433732314d657461646174613a2055524920717565727920666f72206e6f6e6578697374656e7420746f6b656e4552433732313a20617070726f76616c20746f2063757272656e74206f776e65724552433732313a2061736b696e672064617461206f66206e6f6e6578697374656e7420746f6b656e4552433732313a207472616e736665722063616c6c6572206973206e6f74206f776e6572206e6f7220617070726f7665644552433732314275726e61626c653a2063616c6c6572206973206e6f74206f776e6572206e6f7220617070726f766564a2646970667358221220a1590557db66e28f41a5e9298fbe91edb021e6eff92c23f6c40f1178f3fc74ee64736f6c6343000602003360806040523480156200001157600080fd5b506040518060400160405280600981526020017f466c6578506f696e7400000000000000000000000000000000000000000000008152506040518060400160405280600281526020017f46500000000000000000000000000000000000000000000000000000000000008152508160039080519060200190620000969291906200018d565b508060049080519060200190620000af9291906200018d565b506012600560006101000a81548160ff021916908360ff16021790555050506000620000e06200018560201b60201c565b905080600560016101000a81548173ffffffffffffffffffffffffffffffffffffffff021916908373ffffffffffffffffffffffffffffffffffffffff1602179055508073ffffffffffffffffffffffffffffffffffffffff16600073ffffffffffffffffffffffffffffffffffffffff167f8be0079c531659141344cd1fd0a4f28419497f9722a3daafe3b4186f6b6457e060405160405180910390a3506200023c565b600033905090565b828054600181600116156101000203166002900490600052602060002090601f016020900481019282601f10620001d057805160ff191683800117855562000201565b8280016001018555821562000201579182015b8281111562000200578251825591602001919060010190620001e3565b5b50905062000210919062000214565b5090565b6200023991905b80821115620002355760008160009055506001016200021b565b5090565b90565b611d70806200024c6000396000f3fe608060405234801561001057600080fd5b50600436106101165760003560e01c806379cc6790116100a2578063a457c2d711610071578063a457c2d71461052b578063a9059cbb14610591578063a9605883146105f7578063dd62ed3e14610645578063f2fde38b146106bd57610116565b806379cc6790146103c25780638da5cb5b1461041057806390e501f71461045a57806395d89b41146104a857610116565b8063313ce567116100e9578063313ce567146102a857806339509351146102cc57806342966c681461033257806370a0823114610360578063715018a6146103b857610116565b806306fdde031461011b578063095ea7b31461019e57806318160ddd1461020457806323b872dd14610222575b600080fd5b610123610701565b6040518080602001828103825283818151815260200191508051906020019080838360005b83811015610163578082015181840152602081019050610148565b50505050905090810190601f1680156101905780820380516001836020036101000a031916815260200191505b509250505060405180910390f35b6101ea600480360360408110156101b457600080fd5b81019080803573ffffffffffffffffffffffffffffffffffffffff169060200190929190803590602001909291905050506107a3565b604051808215151515815260200191505060405180910390f35b61020c6107c1565b6040518082815260200191505060405180910390f35b61028e6004803603606081101561023857600080fd5b81019080803573ffffffffffffffffffffffffffffffffffffffff169060200190929190803573ffffffffffffffffffffffffffffffffffffffff169060200190929190803590602001909291905050506107cb565b604051808215151515815260200191505060405180910390f35b6102b06108a4565b604051808260ff1660ff16815260200191505060405180910390f35b610318600480360360408110156102e257600080fd5b81019080803573ffffffffffffffffffffffffffffffffffffffff169060200190929190803590602001909291905050506108bb565b604051808215151515815260200191505060405180910390f35b61035e6004803603602081101561034857600080fd5b810190808035906020019092919050505061096e565b005b6103a26004803603602081101561037657600080fd5b81019080803573ffffffffffffffffffffffffffffffffffffffff169060200190929190505050610982565b6040518082815260200191505060405180910390f35b6103c06109ca565b005b61040e600480360360408110156103d857600080fd5b81019080803573ffffffffffffffffffffffffffffffffffffffff16906020019092919080359060200190929190505050610b55565b005b610418610bb7565b604051808273ffffffffffffffffffffffffffffffffffffffff1673ffffffffffffffffffffffffffffffffffffffff16815260200191505060405180910390f35b6104a66004803603604081101561047057600080fd5b81019080803573ffffffffffffffffffffffffffffffffffffffff16906020019092919080359060200190929190505050610be1565b005b6104b0610cb9565b6040518080602001828103825283818151815260200191508051906020019080838360005b838110156104f05780820151818401526020810190506104d5565b50505050905090810190601f16801561051d5780820380516001836020036101000a031916815260200191505b509250505060405180910390f35b6105776004803603604081101561054157600080fd5b81019080803573ffffffffffffffffffffffffffffffffffffffff16906020019092919080359060200190929190505050610d5b565b604051808215151515815260200191505060405180910390f35b6105dd600480360360408110156105a757600080fd5b81019080803573ffffffffffffffffffffffffffffffffffffffff16906020019092919080359060200190929190505050610e28565b604051808215151515815260200191505060405180910390f35b6106436004803603604081101561060d57600080fd5b81019080803573ffffffffffffffffffffffffffffffffffffffff16906020019092919080359060200190929190505050610e46565b005b6106a76004803603604081101561065b57600080fd5b81019080803573ffffffffffffffffffffffffffffffffffffffff169060200190929190803573ffffffffffffffffffffffffffffffffffffffff169060200190929190505050610f33565b6040518082815260200191505060405180910390f35b6106ff600480360360208110156106d357600080fd5b81019080803573ffffffffffffffffffffffffffffffffffffffff169060200190929190505050610fba565b005b606060038054600181600116156101000203166002900480601f0160208091040260200160405190810160405280929190818152602001828054600181600116156101000203166002900480156107995780601f1061076e57610100808354040283529160200191610799565b820191906000526020600020905b81548152906001019060200180831161077c57829003601f168201915b5050505050905090565b60006107b76107b06111ca565b84846111d2565b6001905092915050565b6000600254905090565b60006107d88484846113c9565b610899846107e46111ca565b61089485604051806060016040528060288152602001611c6060289139600160008b73ffffffffffffffffffffffffffffffffffffffff1673ffffffffffffffffffffffffffffffffffffffff168152602001908152602001600020600061084a6111ca565b73ffffffffffffffffffffffffffffffffffffffff1673ffffffffffffffffffffffffffffffffffffffff1681526020019081526020016000205461168a9092919063ffffffff16565b6111d2565b600190509392505050565b6000600560009054906101000a900460ff16905090565b60006109646108c86111ca565b8461095f85600160006108d96111ca565b73ffffffffffffffffffffffffffffffffffffffff1673ffffffffffffffffffffffffffffffffffffffff16815260200190815260200160002060008973ffffffffffffffffffffffffffffffffffffffff1673ffffffffffffffffffffffffffffffffffffffff1681526020019081526020016000205461174a90919063ffffffff16565b6111d2565b6001905092915050565b61097f6109796111ca565b826117d2565b50565b60008060008373ffffffffffffffffffffffffffffffffffffffff1673ffffffffffffffffffffffffffffffffffffffff168152602001908152602001600020549050919050565b6109d26111ca565b73ffffffffffffffffffffffffffffffffffffffff16600560019054906101000a900473ffffffffffffffffffffffffffffffffffffffff1673ffffffffffffffffffffffffffffffffffffffff1614610a94576040517f08c379a00000000000000000000000000000000000000000000000000000000081526004018080602001828103825260208152602001807f4f776e61626c653a2063616c6c6572206973206e6f7420746865206f776e657281525060200191505060405180910390fd5b600073ffffffffffffffffffffffffffffffffffffffff16600560019054906101000a900473ffffffffffffffffffffffffffffffffffffffff1673ffffffffffffffffffffffffffffffffffffffff167f8be0079c531659141344cd1fd0a4f28419497f9722a3daafe3b4186f6b6457e060405160405180910390a36000600560016101000a81548173ffffffffffffffffffffffffffffffffffffffff021916908373ffffffffffffffffffffffffffffffffffffffff160217905550565b6000610b9482604051806060016040528060248152602001611c8860249139610b8586610b806111ca565b610f33565b61168a9092919063ffffffff16565b9050610ba883610ba26111ca565b836111d2565b610bb283836117d2565b505050565b6000600560019054906101000a900473ffffffffffffffffffffffffffffffffffffffff16905090565b610be96111ca565b73ffffffffffffffffffffffffffffffffffffffff16600560019054906101000a900473ffffffffffffffffffffffffffffffffffffffff1673ffffffffffffffffffffffffffffffffffffffff1614610cab576040517f08c379a00000000000000000000000000000000000000000000000000000000081526004018080602001828103825260208152602001807f4f776e61626c653a2063616c6c6572206973206e6f7420746865206f776e657281525060200191505060405180910390fd5b610cb58282611996565b5050565b606060048054600181600116156101000203166002900480601f016020809104026020016040519081016040528092919081815260200182805460018160011615610100020316600290048015610d515780601f10610d2657610100808354040283529160200191610d51565b820191906000526020600020905b815481529060010190602001808311610d3457829003601f168201915b5050505050905090565b6000610e1e610d686111ca565b84610e1985604051806060016040528060258152602001611d166025913960016000610d926111ca565b73ffffffffffffffffffffffffffffffffffffffff1673ffffffffffffffffffffffffffffffffffffffff16815260200190815260200160002060008a73ffffffffffffffffffffffffffffffffffffffff1673ffffffffffffffffffffffffffffffffffffffff1681526020019081526020016000205461168a9092919063ffffffff16565b6111d2565b6001905092915050565b6000610e3c610e356111ca565b84846113c9565b6001905092915050565b610e4e6111ca565b73ffffffffffffffffffffffffffffffffffffffff16600560019054906101000a900473ffffffffffffffffffffffffffffffffffffffff1673ffffffffffffffffffffffffffffffffffffffff1614610f10576040517f08c379a00000000000000000000000000000000000000000000000000000000081526004018080602001828103825260208152602001807f4f776e61626c653a2063616c6c6572206973206e6f7420746865206f776e657281525060200191505060405180910390fd5b80610f1a83610982565b1015610f2557600080fd5b610f2f82826117d2565b5050565b6000600160008473ffffffffffffffffffffffffffffffffffffffff1673ffffffffffffffffffffffffffffffffffffffff16815260200190815260200160002060008373ffffffffffffffffffffffffffffffffffffffff1673ffffffffffffffffffffffffffffffffffffffff16815260200190815260200160002054905092915050565b610fc26111ca565b73ffffffffffffffffffffffffffffffffffffffff16600560019054906101000a900473ffffffffffffffffffffffffffffffffffffffff1673ffffffffffffffffffffffffffffffffffffffff1614611084576040517f08c379a00000000000000000000000000000000000000000000000000000000081526004018080602001828103825260208152602001807f4f776e61626c653a2063616c6c6572206973206e6f7420746865206f776e657281525060200191505060405180910390fd5b600073ffffffffffffffffffffffffffffffffffffffff168173ffffffffffffffffffffffffffffffffffffffff16141561110a576040517f08c379a0000000000000000000000000000000000000000000000000000000008152600401808060200182810382526026815260200180611bf26026913960400191505060405180910390fd5b8073ffffffffffffffffffffffffffffffffffffffff16600560019054906101000a900473ffffffffffffffffffffffffffffffffffffffff1673ffffffffffffffffffffffffffffffffffffffff167f8be0079c531659141344cd1fd0a4f28419497f9722a3daafe3b4186f6b6457e060405160405180910390a380600560016101000a81548173ffffffffffffffffffffffffffffffffffffffff021916908373ffffffffffffffffffffffffffffffffffffffff16021790555050565b600033905090565b600073ffffffffffffffffffffffffffffffffffffffff168373ffffffffffffffffffffffffffffffffffffffff161415611258576040517f08c379a0000000000000000000000000000000000000000000000000000000008152600401808060200182810382526024815260200180611cf26024913960400191505060405180910390fd5b600073ffffffffffffffffffffffffffffffffffffffff168273ffffffffffffffffffffffffffffffffffffffff1614156112de576040517f08c379a0000000000000000000000000000000000000000000000000000000008152600401808060200182810382526022815260200180611c186022913960400191505060405180910390fd5b80600160008573ffffffffffffffffffffffffffffffffffffffff1673ffffffffffffffffffffffffffffffffffffffff16815260200190815260200160002060008473ffffffffffffffffffffffffffffffffffffffff1673ffffffffffffffffffffffffffffffffffffffff168152602001908152602001600020819055508173ffffffffffffffffffffffffffffffffffffffff168373ffffffffffffffffffffffffffffffffffffffff167f8c5be1e5ebec7d5bd14f71427d1e84f3dd0314c0f7b2291e5b200ac8c7c3b925836040518082815260200191505060405180910390a3505050565b600073ffffffffffffffffffffffffffffffffffffffff168373ffffffffffffffffffffffffffffffffffffffff16141561144f576040517f08c379a0000000000000000000000000000000000000000000000000000000008152600401808060200182810382526025815260200180611ccd6025913960400191505060405180910390fd5b600073ffffffffffffffffffffffffffffffffffffffff168273ffffffffffffffffffffffffffffffffffffffff1614156114d5576040517f08c379a0000000000000000000000000000000000000000000000000000000008152600401808060200182810382526023815260200180611bad6023913960400191505060405180910390fd5b6114e0838383611b5d565b61154b81604051806060016040528060268152602001611c3a602691396000808773ffffffffffffffffffffffffffffffffffffffff1673ffffffffffffffffffffffffffffffffffffffff1681526020019081526020016000205461168a9092919063ffffffff16565b6000808573ffffffffffffffffffffffffffffffffffffffff1673ffffffffffffffffffffffffffffffffffffffff168152602001908152602001600020819055506115de816000808573ffffffffffffffffffffffffffffffffffffffff1673ffffffffffffffffffffffffffffffffffffffff1681526020019081526020016000205461174a90919063ffffffff16565b6000808473ffffffffffffffffffffffffffffffffffffffff1673ffffffffffffffffffffffffffffffffffffffff168152602001908152602001600020819055508173ffffffffffffffffffffffffffffffffffffffff168373ffffffffffffffffffffffffffffffffffffffff167fddf252ad1be2c89b69c2b068fc378daa952ba7f163c4a11628f55a4df523b3ef836040518082815260200191505060405180910390a3505050565b6000838311158290611737576040517f08c379a00000000000000000000000000000000000000000000000000000000081526004018080602001828103825283818151815260200191508051906020019080838360005b838110156116fc5780820151818401526020810190506116e1565b50505050905090810190601f1680156117295780820380516001836020036101000a031916815260200191505b509250505060405180910390fd5b5060008385039050809150509392505050565b6000808284019050838110156117c8576040517f08c379a000000000000000000000000000000000000000000000000000000000815260040180806020018281038252601b8152602001807f536166654d6174683a206164646974696f6e206f766572666c6f77000000000081525060200191505060405180910390fd5b8091505092915050565b600073ffffffffffffffffffffffffffffffffffffffff168273ffffffffffffffffffffffffffffffffffffffff161415611858576040517f08c379a0000000000000000000000000000000000000000000000000000000008152600401808060200182810382526021815260200180611cac6021913960400191505060405180910390fd5b61186482600083611b5d565b6118cf81604051806060016040528060228152602001611bd0602291396000808673ffffffffffffffffffffffffffffffffffffffff1673ffffffffffffffffffffffffffffffffffffffff1681526020019081526020016000205461168a9092919063ffffffff16565b6000808473ffffffffffffffffffffffffffffffffffffffff1673ffffffffffffffffffffffffffffffffffffffff1681526020019081526020016000208190555061192681600254611b6290919063ffffffff16565b600281905550600073ffffffffffffffffffffffffffffffffffffffff168273ffffffffffffffffffffffffffffffffffffffff167fddf252ad1be2c89b69c2b068fc378daa952ba7f163c4a11628f55a4df523b3ef836040518082815260200191505060405180910390a35050565b600073ffffffffffffffffffffffffffffffffffffffff168273ffffffffffffffffffffffffffffffffffffffff161415611a39576040517f08c379a000000000000000000000000000000000000000000000000000000000815260040180806020018281038252601f8152602001807f45524332303a206d696e7420746f20746865207a65726f20616464726573730081525060200191505060405180910390fd5b611a4560008383611b5d565b611a5a8160025461174a90919063ffffffff16565b600281905550611ab1816000808573ffffffffffffffffffffffffffffffffffffffff1673ffffffffffffffffffffffffffffffffffffffff1681526020019081526020016000205461174a90919063ffffffff16565b6000808473ffffffffffffffffffffffffffffffffffffffff1673ffffffffffffffffffffffffffffffffffffffff168152602001908152602001600020819055508173ffffffffffffffffffffffffffffffffffffffff16600073ffffffffffffffffffffffffffffffffffffffff167fddf252ad1be2c89b69c2b068fc378daa952ba7f163c4a11628f55a4df523b3ef836040518082815260200191505060405180910390a35050565b505050565b6000611ba483836040518060400160405280601e81526020017f536166654d6174683a207375627472616374696f6e206f766572666c6f77000081525061168a565b90509291505056fe45524332303a207472616e7366657220746f20746865207a65726f206164647265737345524332303a206275726e20616d6f756e7420657863656564732062616c616e63654f776e61626c653a206e6577206f776e657220697320746865207a65726f206164647265737345524332303a20617070726f766520746f20746865207a65726f206164647265737345524332303a207472616e7366657220616d6f756e7420657863656564732062616c616e636545524332303a207472616e7366657220616d6f756e74206578636565647320616c6c6f77616e636545524332303a206275726e20616d6f756e74206578636565647320616c6c6f77616e636545524332303a206275726e2066726f6d20746865207a65726f206164647265737345524332303a207472616e736665722066726f6d20746865207a65726f206164647265737345524332303a20617070726f76652066726f6d20746865207a65726f206164647265737345524332303a2064656372656173656420616c6c6f77616e63652062656c6f77207a65726fa2646970667358221220acef68680d0b24b62c979c901e7c6e85ce0228c5c3b3c0d39f652443237f40aa64736f6c63430006020033",
  "source": "// SPDX-License-Identifier: MIT\r\npragma solidity >=0.4.22 <0.8.0;\r\n\r\nimport \"../node_modules/@openzeppelin/contracts/token/ERC721/ERC721.sol\";\r\nimport \"../node_modules/@openzeppelin/contracts/token/ERC721/ERC721Burnable.sol\";\r\nimport \"../node_modules/@openzeppelin/contracts/token/ERC721/IERC721Enumerable.sol\";\r\nimport \"../node_modules/@openzeppelin/contracts/access/Ownable.sol\";\r\n\r\nimport \"./FlexPoint.sol\";\r\n\r\n// Basically, I need to create an ER721 token with the following functionality\r\n// Mintable by holder smart contract (After claim approved by oracle)\r\n// Burnable by holder smart contract once the end timestamp passes\r\n// Pausable where the contract ownership transfer is paused 15 minutes before start of flex time\r\n// Metadata must be able to change\r\n\r\n// Todo:\r\n// 1) Maybe I cannot transfer ownership like normal\r\n// 2) Maybe I should only change the address in the struct\r\n// 3) If we want ownership to change, then all the participants must give approval to contract before joining\r\n\r\n\r\ncontract FlexOffer is ERC721, ERC721Burnable{\r\n    string public memory_string;\r\n    FlexPoint public FP;\r\n    uint256 internal flexOfferCount;\r\n    uint internal offerTimeBuffer;\r\n    uint internal bidTimeBuffer;\r\n\r\n    struct flex_offer_data {\r\n        address og_owner;\r\n        uint power;\r\n        uint duration;\r\n        uint start_time;\r\n        uint end_time;\r\n        uint curr_bid;\r\n    }\r\n\r\n    // mapping thats links an address to the list of flex offers they have created\r\n    mapping(address => uint256[]) public flexOfferMintMapping;\r\n\r\n    mapping (uint256 => flex_offer_data) public flex_offers_mapping;\r\n\r\n    event flexOfferMinted (uint256 indexed flexOfferId, address indexed og_owner);\r\n\r\n    event flexOfferBidSuccess(uint256 indexed flexOfferId, address indexed new_owner);\r\n\r\n    event flexOfferActivation(uint256 indexed flexOfferId,uint256 flexPointCalc, address indexed curr_owner);\r\n\r\n    event ethForFlexPoint(address indexed _address, uint ethAmount, uint pointAmount, address indexed curr_owner);\r\n\r\n    // event flex_offer_bid_failed(uint256 indexed flexTokenId);\r\n\r\n    event flex_offer_burned (uint256 indexed flexOfferId);\r\n\r\n    constructor() ERC721(\"Flex_Offer\",\"FO\") public {\r\n        memory_string = \"heyo\";\r\n        FP = new FlexPoint();\r\n        flexOfferCount = 0;\r\n        bidTimeBuffer = 10;\r\n        offerTimeBuffer = 60; \r\n    }\r\n\r\n    function GetMyTotMintedFlexOffers(address _address) public returns(uint256){\r\n        return uint256(flexOfferMintMapping[_address].length);\r\n    }\r\n    \r\n    function GetMyFlexOffer(address _address, uint256 i) public returns(uint256){\r\n        return uint256(flexOfferMintMapping[_address][i]);\r\n    }\r\n\r\n    function CalFlexPointIssue(uint256 flexOfferId) internal view returns (uint256){\r\n        uint start = flex_offers_mapping[flexOfferId].start_time;\r\n        uint end = flex_offers_mapping[flexOfferId].end_time;\r\n        uint dur = flex_offers_mapping[flexOfferId].duration;\r\n        uint pow = flex_offers_mapping[flexOfferId].power;\r\n        return ((end-start-dur)/(end-start-dur))*(dur)*(pow);\r\n    }\r\n    // include a incrementing counter\r\n    function create_flex_offer_id ( address _address, uint timestamp ) internal pure returns (bytes32){\r\n        return keccak256(abi.encodePacked(_address, timestamp));\r\n    } \r\n\r\n    function _initiate_flex_offer_data(\r\n        uint256 token_id,\r\n        uint power,\r\n        uint duration,\r\n        uint start_time,\r\n        uint end_time\r\n    ) internal {\r\n        require(_exists(token_id), \"ERC721: asking data of nonexistent token\");\r\n        flex_offers_mapping[token_id] = flex_offer_data(_msgSender(),power,duration,start_time,end_time,0);\r\n    }\r\n\r\n    function mint_flex_offer_to(\r\n        uint power,\r\n        uint duration,\r\n        uint start_time,\r\n        uint end_time\r\n    ) public returns (uint256){\r\n        // uint256 _flex_offer_id = uint256(create_flex_offer_id (_msgSender(),block.timestamp));\r\n        // require for the start_time to be later than the offer time buffer\r\n        require(block.timestamp+offerTimeBuffer < start_time, \"start time too close to offer time. Does not allow time for bidders to bid\");\r\n        uint256 _flex_offer_id = flexOfferCount; \r\n        flexOfferMintMapping[_msgSender()].push(_flex_offer_id);\r\n        _safeMint(_msgSender(),_flex_offer_id);\r\n        _initiate_flex_offer_data(_flex_offer_id, power, duration, start_time, end_time);\r\n        require(_exists(_flex_offer_id), \"flex offer does not exist\");\r\n        flexOfferCount = flexOfferCount + 1;\r\n        emit flexOfferMinted(_flex_offer_id, _msgSender());\r\n        return uint256(_flex_offer_id);\r\n    }\r\n\r\n    function BidForFlexOffer(uint256 flexOfferId) public payable{\r\n        // Current highest bid for the flex offer\r\n        uint currBid = flex_offers_mapping[flexOfferId].curr_bid;\r\n        // Require that the bid is within the bid window\r\n        require(\r\n            (block.timestamp+bidTimeBuffer) < flex_offers_mapping[flexOfferId].start_time,\r\n            \"Flex Offer is no longer biddable\"\r\n        );\r\n        require(\r\n            msg.value > currBid,\r\n            \"Current bid is higher than your bid\"\r\n        );\r\n        payable(ownerOf(flexOfferId)).transfer(flex_offers_mapping[flexOfferId].curr_bid);\r\n        _transfer(ownerOf(flexOfferId), _msgSender(), flexOfferId);\r\n        flex_offers_mapping[flexOfferId].curr_bid = msg.value;\r\n        emit flexOfferBidSuccess(flexOfferId, _msgSender());\r\n    }\r\n\r\n    // the activation of the flex offer also burns the flex offer\r\n    // Need to add the reward mechanism here \r\n    function ActivateFlexOffer(uint256 flexOfferId)public{\r\n        require(_msgSender() == ownerOf(flexOfferId));\r\n        // can only activate after start time\r\n        // require(block.timestamp > flex_offers_mapping[flexOfferId].start_time);\r\n        // Must be activated before the end time - duration requirement\r\n        // require(block.timestamp < flex_offers_mapping[flexOfferId].end_time-flex_offers_mapping[flexOfferId].duration);\r\n        uint256 flexPointCalc = CalFlexPointIssue(flexOfferId);\r\n        FP.IssueFlexPoint( flex_offers_mapping[flexOfferId].og_owner, flexPointCalc);\r\n        _burn(flexOfferId);\r\n        emit flexOfferActivation(flexOfferId ,flexPointCalc, _msgSender());\r\n    }\r\n\r\n    // Fallback activation if\r\n    // 1) There was no buyer\r\n    // 2) The buyer did not end up activating\r\n    // 3) The end time - duration has passed\r\n    // Note: This means that the owner cannot terminate the flex offer on his own\r\n    // We can add this functionality later\r\n    function EndTimeActivate(uint256 flexOfferId) public {\r\n        require (_msgSender() == flex_offers_mapping[flexOfferId].og_owner);\r\n        require (block.timestamp > (flex_offers_mapping[flexOfferId].end_time - flex_offers_mapping[flexOfferId].duration));\r\n        uint256 flexPointCalc = CalFlexPointIssue(flexOfferId);\r\n        FP.IssueFlexPoint( flex_offers_mapping[flexOfferId].og_owner, flexPointCalc);\r\n        _burn(flexOfferId);\r\n        emit flex_offer_burned (flexOfferId);\r\n    }\r\n\r\n\r\n    // function to claim ETH with FlexPoints\r\n    function ClaimEthWithFlexPoint(uint pointAmount) public {\r\n        uint flexPointSupply = FP.totalSupply();\r\n        uint ethBalance = address(this).balance;\r\n        uint ethAmount = (pointAmount*ethBalance)/flexPointSupply;\r\n        FP.ClaimFlexPoints (_msgSender(), pointAmount);\r\n        require(_msgSender().send(ethAmount));\r\n        emit ethForFlexPoint(_msgSender(), ethAmount, pointAmount, _msgSender());\r\n    }\r\n\r\n\r\n}",
  "sourcePath": "D:/susDAOS/susDAO-eflex/main_contract/contracts/FlexOffer.sol",
  "compiler": {
    "name": "solc",
    "version": "0.6.2+commit.bacdbe57.Emscripten.clang"
  },
  "schemaVersion": "3.3.1",
  "updatedAt": "2020-11-30T19:21:03.186Z",
  "networkType": "ethereum",
  "devdoc": {
    "methods": {
      "approve(address,uint256)": {
        "details": "See {IERC721-approve}."
      },
      "balanceOf(address)": {
        "details": "See {IERC721-balanceOf}."
      },
      "baseURI()": {
        "details": "Returns the base URI set via {_setBaseURI}. This will be automatically added as a prefix in {tokenURI} to each token's URI, or to the token ID if no specific URI is set for that token ID."
      },
      "burn(uint256)": {
        "details": "Burns `tokenId`. See {ERC721-_burn}.     * Requirements:     * - The caller must own `tokenId` or be an approved operator."
      },
      "getApproved(uint256)": {
        "details": "See {IERC721-getApproved}."
      },
      "isApprovedForAll(address,address)": {
        "details": "See {IERC721-isApprovedForAll}."
      },
      "name()": {
        "details": "See {IERC721Metadata-name}."
      },
      "ownerOf(uint256)": {
        "details": "See {IERC721-ownerOf}."
      },
      "safeTransferFrom(address,address,uint256)": {
        "details": "See {IERC721-safeTransferFrom}."
      },
      "safeTransferFrom(address,address,uint256,bytes)": {
        "details": "See {IERC721-safeTransferFrom}."
      },
      "setApprovalForAll(address,bool)": {
        "details": "See {IERC721-setApprovalForAll}."
      },
      "supportsInterface(bytes4)": {
        "details": "See {IERC165-supportsInterface}.     * Time complexity O(1), guaranteed to always use less than 30 000 gas."
      },
      "symbol()": {
        "details": "See {IERC721Metadata-symbol}."
      },
      "tokenByIndex(uint256)": {
        "details": "See {IERC721Enumerable-tokenByIndex}."
      },
      "tokenOfOwnerByIndex(address,uint256)": {
        "details": "See {IERC721Enumerable-tokenOfOwnerByIndex}."
      },
      "tokenURI(uint256)": {
        "details": "See {IERC721Metadata-tokenURI}."
      },
      "totalSupply()": {
        "details": "See {IERC721Enumerable-totalSupply}."
      },
      "transferFrom(address,address,uint256)": {
        "details": "See {IERC721-transferFrom}."
      }
    }
  },
  "userdoc": {
    "methods": {}
  }
}