{
  "contractName": "FlexMngrSim",
  "abi": [
    {
      "anonymous": false,
      "inputs": [
        {
          "indexed": false,
          "internalType": "int256",
          "name": "offerNonce",
          "type": "int256"
        },
        {
          "indexed": false,
          "internalType": "int256",
          "name": "moneyAmount",
          "type": "int256"
        },
        {
          "indexed": false,
          "internalType": "int256",
          "name": "bidderNonce",
          "type": "int256"
        }
      ],
      "name": "bidHappened",
      "type": "event"
    },
    {
      "anonymous": false,
      "inputs": [
        {
          "indexed": false,
          "internalType": "int256",
          "name": "offerNonce",
          "type": "int256"
        }
      ],
      "name": "deviceTurnedOn",
      "type": "event"
    },
    {
      "anonymous": false,
      "inputs": [
        {
          "indexed": false,
          "internalType": "int256",
          "name": "offerNonce",
          "type": "int256"
        }
      ],
      "name": "offerCreated",
      "type": "event"
    },
    {
      "constant": false,
      "inputs": [
        {
          "internalType": "int256",
          "name": "offerNonce",
          "type": "int256"
        },
        {
          "internalType": "int256",
          "name": "moneyAmount",
          "type": "int256"
        },
        {
          "internalType": "int256",
          "name": "bidderNonce",
          "type": "int256"
        }
      ],
      "name": "bidForFlexOffer",
      "outputs": [],
      "payable": false,
      "stateMutability": "nonpayable",
      "type": "function"
    },
    {
      "constant": false,
      "inputs": [
        {
          "internalType": "int256",
          "name": "offerNonce",
          "type": "int256"
        }
      ],
      "name": "turnOnDeviceOfFlexOffer",
      "outputs": [],
      "payable": false,
      "stateMutability": "nonpayable",
      "type": "function"
    },
    {
      "constant": false,
      "inputs": [
        {
          "internalType": "int256",
          "name": "offerNonce",
          "type": "int256"
        }
      ],
      "name": "createFlexOffer",
      "outputs": [
        {
          "internalType": "int256",
          "name": "",
          "type": "int256"
        }
      ],
      "payable": false,
      "stateMutability": "nonpayable",
      "type": "function"
    }
  ],
  "bytecode": "0x608060405234801561001057600080fd5b506101f5806100206000396000f3fe608060405234801561001057600080fd5b50600436106100415760003560e01c80630b61c4f214610046578063e1ee368e14610088578063e33584f9146100ca575b600080fd5b6100866004803603606081101561005c57600080fd5b810190808035906020019092919080359060200190929190803590602001909291905050506100f8565b005b6100b46004803603602081101561009e57600080fd5b8101908080359060200190929190505050610144565b6040518082815260200191505060405180910390f35b6100f6600480360360208110156100e057600080fd5b8101908080359060200190929190505050610186565b005b7f7d84017c4927aca4c6df9bad544c6dc03df54caef1c0dac8aec090b8c8f0806583838360405180848152602001838152602001828152602001935050505060405180910390a1505050565b60007fc8e37bba9da436f0eb109be684e882ebd9f0b371cd70334476df1db201d6dac5826040518082815260200191505060405180910390a160029050919050565b7ffac1adda78b84464f18ec496e9b0a3eebf3649714d60db0ee50684046ba56caf816040518082815260200191505060405180910390a15056fea265627a7a72315820c614b64dd753d69df7639838e18dae9b6c412f670de8fd392907797ff433f3de64736f6c63430005100032",
  "source": "// SPDX-License-Identifier: MIT\npragma solidity >=0.4.22 <0.8.0;\n\ncontract FlexMngrSim {\n\n    event bidHappened(int offerNonce, int moneyAmount, int bidderNonce);\n    event deviceTurnedOn(int offerNonce);\n    event offerCreated(int offerNonce);\n\n    function bidForFlexOffer(int offerNonce, int moneyAmount, int bidderNonce) public {\n        emit bidHappened(offerNonce, moneyAmount, bidderNonce);\n    }\n\n    function turnOnDeviceOfFlexOffer(int offerNonce) public {\n        emit deviceTurnedOn(offerNonce);\n    }\n\n    function createFlexOffer(int offerNonce) public returns (int) {\n        emit offerCreated(offerNonce);\n        return 2;\n    }\n\n\n\n\n\n\n}\n",
  "sourcePath": "/mnt/c/Users/silas/Documents/ETH/hs20/DAO/flex-offer-buyer/example_contracts/contracts/FlexMngrSim.sol",
  "compiler": {
    "name": "solc",
    "version": "0.5.16+commit.9c3226ce.Emscripten.clang"
  },
  "schemaVersion": "3.3.1",
  "updatedAt": "2020-10-30T21:37:13.281Z",
  "devdoc": {
    "methods": {}
  },
  "userdoc": {
    "methods": {}
  }
}